{
  "_format": "hh-sol-artifact-1",
  "contractName": "CashbackManager",
  "sourceName": "contracts/CashbackManager.sol",
  "abi": [
    {
      "inputs": [
        {
          "internalType": "address",
          "name": "_shopCapTokenAddress",
          "type": "address"
        },
        {
          "internalType": "address",
          "name": "_partnerRegistryAddress",
          "type": "address"
        },
        {
          "internalType": "address",
          "name": "_initialReserveWallet",
          "type": "address"
        }
      ],
      "stateMutability": "nonpayable",
      "type": "constructor"
    },
    {
      "inputs": [
        {
          "internalType": "address",
          "name": "owner",
          "type": "address"
        }
      ],
      "name": "OwnableInvalidOwner",
      "type": "error"
    },
    {
      "inputs": [
        {
          "internalType": "address",
          "name": "account",
          "type": "address"
        }
      ],
      "name": "OwnableUnauthorizedAccount",
      "type": "error"
    },
    {
      "anonymous": false,
      "inputs": [
        {
          "indexed": true,
          "internalType": "address",
          "name": "user",
          "type": "address"
        },
        {
          "indexed": true,
          "internalType": "uint256",
          "name": "partnerId",
          "type": "uint256"
        },
        {
          "indexed": false,
          "internalType": "uint256",
          "name": "purchaseAmount",
          "type": "uint256"
        },
        {
          "indexed": false,
          "internalType": "uint256",
          "name": "userCashbackAmount",
          "type": "uint256"
        }
      ],
      "name": "CashbackIssued",
      "type": "event"
    },
    {
      "anonymous": false,
      "inputs": [
        {
          "indexed": false,
          "internalType": "uint256",
          "name": "newBasePercent",
          "type": "uint256"
        },
        {
          "indexed": false,
          "internalType": "uint256",
          "name": "newUserShare",
          "type": "uint256"
        },
        {
          "indexed": false,
          "internalType": "uint256",
          "name": "newReserveShare",
          "type": "uint256"
        },
        {
          "indexed": false,
          "internalType": "uint256",
          "name": "newBurnShare",
          "type": "uint256"
        }
      ],
      "name": "CashbackParamsUpdated",
      "type": "event"
    },
    {
      "anonymous": false,
      "inputs": [
        {
          "indexed": true,
          "internalType": "address",
          "name": "previousOwner",
          "type": "address"
        },
        {
          "indexed": true,
          "internalType": "address",
          "name": "newOwner",
          "type": "address"
        }
      ],
      "name": "OwnershipTransferred",
      "type": "event"
    },
    {
      "anonymous": false,
      "inputs": [
        {
          "indexed": true,
          "internalType": "address",
          "name": "referrer",
          "type": "address"
        },
        {
          "indexed": true,
          "internalType": "uint256",
          "name": "partnerId",
          "type": "uint256"
        },
        {
          "indexed": false,
          "internalType": "uint256",
          "name": "bonusAmount",
          "type": "uint256"
        }
      ],
      "name": "ReferrerBonusIssued",
      "type": "event"
    },
    {
      "anonymous": false,
      "inputs": [
        {
          "indexed": false,
          "internalType": "uint256",
          "name": "newPercent",
          "type": "uint256"
        }
      ],
      "name": "ReferrerBonusPercentUpdated",
      "type": "event"
    },
    {
      "anonymous": false,
      "inputs": [
        {
          "indexed": true,
          "internalType": "address",
          "name": "oldWallet",
          "type": "address"
        },
        {
          "indexed": true,
          "internalType": "address",
          "name": "newWallet",
          "type": "address"
        }
      ],
      "name": "ReserveWalletUpdated",
      "type": "event"
    },
    {
      "anonymous": false,
      "inputs": [
        {
          "indexed": true,
          "internalType": "address",
          "name": "to",
          "type": "address"
        },
        {
          "indexed": false,
          "internalType": "uint256",
          "name": "amount",
          "type": "uint256"
        }
      ],
      "name": "TokenTransferred",
      "type": "event"
    },
    {
      "anonymous": false,
      "inputs": [
        {
          "indexed": false,
          "internalType": "uint256",
          "name": "amount",
          "type": "uint256"
        }
      ],
      "name": "TokensBurned",
      "type": "event"
    },
    {
      "anonymous": false,
      "inputs": [
        {
          "indexed": true,
          "internalType": "address",
          "name": "wallet",
          "type": "address"
        },
        {
          "indexed": false,
          "internalType": "uint256",
          "name": "amount",
          "type": "uint256"
        }
      ],
      "name": "TokensToReserve",
      "type": "event"
    },
    {
      "anonymous": false,
      "inputs": [
        {
          "indexed": true,
          "internalType": "address",
          "name": "user",
          "type": "address"
        },
        {
          "indexed": true,
          "internalType": "uint256",
          "name": "referrerPartnerId",
          "type": "uint256"
        }
      ],
      "name": "UserRegistered",
      "type": "event"
    },
    {
      "inputs": [],
      "name": "BURN_ADDRESS",
      "outputs": [
        {
          "internalType": "address",
          "name": "",
          "type": "address"
        }
      ],
      "stateMutability": "view",
      "type": "function"
    },
    {
      "inputs": [],
      "name": "burnShare",
      "outputs": [
        {
          "internalType": "uint256",
          "name": "",
          "type": "uint256"
        }
      ],
      "stateMutability": "view",
      "type": "function"
    },
    {
      "inputs": [],
      "name": "cashbackBasePercent",
      "outputs": [
        {
          "internalType": "uint256",
          "name": "",
          "type": "uint256"
        }
      ],
      "stateMutability": "view",
      "type": "function"
    },
    {
      "inputs": [
        {
          "internalType": "address",
          "name": "_user",
          "type": "address"
        }
      ],
      "name": "getReferrerInfo",
      "outputs": [
        {
          "internalType": "uint256",
          "name": "",
          "type": "uint256"
        }
      ],
      "stateMutability": "view",
      "type": "function"
    },
    {
      "inputs": [],
      "name": "getShopCapTokenBalance",
      "outputs": [
        {
          "internalType": "uint256",
          "name": "",
          "type": "uint256"
        }
      ],
      "stateMutability": "view",
      "type": "function"
    },
    {
      "inputs": [
        {
          "internalType": "address",
          "name": "_user",
          "type": "address"
        },
        {
          "internalType": "uint256",
          "name": "_purchaseAmount",
          "type": "uint256"
        },
        {
          "internalType": "uint256",
          "name": "_partnerId",
          "type": "uint256"
        }
      ],
      "name": "issueCashbackAndDistribute",
      "outputs": [],
      "stateMutability": "nonpayable",
      "type": "function"
    },
    {
      "inputs": [],
      "name": "owner",
      "outputs": [
        {
          "internalType": "address",
          "name": "",
          "type": "address"
        }
      ],
      "stateMutability": "view",
      "type": "function"
    },
    {
      "inputs": [],
      "name": "partnerRegistry",
      "outputs": [
        {
          "internalType": "contract PartnerRegistry",
          "name": "",
          "type": "address"
        }
      ],
      "stateMutability": "view",
      "type": "function"
    },
    {
      "inputs": [],
      "name": "referrerBonusPercent",
      "outputs": [
        {
          "internalType": "uint256",
          "name": "",
          "type": "uint256"
        }
      ],
      "stateMutability": "view",
      "type": "function"
    },
    {
      "inputs": [
        {
          "internalType": "address",
          "name": "_userAddress",
          "type": "address"
        },
        {
          "internalType": "uint256",
          "name": "_referrerPartnerId",
          "type": "uint256"
        }
      ],
      "name": "registerUser",
      "outputs": [],
      "stateMutability": "nonpayable",
      "type": "function"
    },
    {
      "inputs": [],
      "name": "renounceOwnership",
      "outputs": [],
      "stateMutability": "nonpayable",
      "type": "function"
    },
    {
      "inputs": [],
      "name": "reserveShare",
      "outputs": [
        {
          "internalType": "uint256",
          "name": "",
          "type": "uint256"
        }
      ],
      "stateMutability": "view",
      "type": "function"
    },
    {
      "inputs": [],
      "name": "reserveWallet",
      "outputs": [
        {
          "internalType": "address",
          "name": "",
          "type": "address"
        }
      ],
      "stateMutability": "view",
      "type": "function"
    },
    {
      "inputs": [
        {
          "internalType": "uint256",
          "name": "_newBasePercent",
          "type": "uint256"
        },
        {
          "internalType": "uint256",
          "name": "_newUserShare",
          "type": "uint256"
        },
        {
          "internalType": "uint256",
          "name": "_newReserveShare",
          "type": "uint256"
        },
        {
          "internalType": "uint256",
          "name": "_newBurnShare",
          "type": "uint256"
        }
      ],
      "name": "setCashbackParams",
      "outputs": [],
      "stateMutability": "nonpayable",
      "type": "function"
    },
    {
      "inputs": [
        {
          "internalType": "uint256",
          "name": "_newPercent",
          "type": "uint256"
        }
      ],
      "name": "setReferrerBonusPercent",
      "outputs": [],
      "stateMutability": "nonpayable",
      "type": "function"
    },
    {
      "inputs": [
        {
          "internalType": "address",
          "name": "_newReserveWallet",
          "type": "address"
        }
      ],
      "name": "setReserveWallet",
      "outputs": [],
      "stateMutability": "nonpayable",
      "type": "function"
    },
    {
      "inputs": [],
      "name": "shopCapToken",
      "outputs": [
        {
          "internalType": "contract ShopCAPToken",
          "name": "",
          "type": "address"
        }
      ],
      "stateMutability": "view",
      "type": "function"
    },
    {
      "inputs": [
        {
          "internalType": "address",
          "name": "newOwner",
          "type": "address"
        }
      ],
      "name": "transferOwnership",
      "outputs": [],
      "stateMutability": "nonpayable",
      "type": "function"
    },
    {
      "inputs": [],
      "name": "userCashbackShare",
      "outputs": [
        {
          "internalType": "uint256",
          "name": "",
          "type": "uint256"
        }
      ],
      "stateMutability": "view",
      "type": "function"
    },
    {
      "inputs": [
        {
          "internalType": "address",
          "name": "",
          "type": "address"
        }
      ],
      "name": "userReferrerPartnerId",
      "outputs": [
        {
          "internalType": "uint256",
          "name": "",
          "type": "uint256"
        }
      ],
      "stateMutability": "view",
      "type": "function"
    },
    {
      "inputs": [
        {
          "internalType": "address",
          "name": "_tokenAddress",
          "type": "address"
        },
        {
          "internalType": "uint256",
          "name": "_amount",
          "type": "uint256"
        },
        {
          "internalType": "address",
          "name": "_to",
          "type": "address"
        }
      ],
      "name": "withdrawAnyERC20Tokens",
      "outputs": [],
      "stateMutability": "nonpayable",
      "type": "function"
    }
  ],
  "bytecode": "0x60c060405260466002556014600355600a6004556001600555600060065534801561002957600080fd5b50604051611b02380380611b028339810160408190526100489161023e565b338061006f57604051631e4fbdf760e01b8152600060048201526024015b60405180910390fd5b610078816101d2565b506001600160a01b0383166100db5760405162461bcd60e51b815260206004820152602360248201527f53686f70434150546f6b656e20616464726573732063616e6e6f74206265207a60448201526265726f60e81b6064820152608401610066565b6001600160a01b0382166101405760405162461bcd60e51b815260206004820152602660248201527f506172746e6572526567697374727920616464726573732063616e6e6f74206260448201526565207a65726f60d01b6064820152608401610066565b6001600160a01b0381166101a45760405162461bcd60e51b815260206004820152602560248201527f496e697469616c20726573657276652077616c6c65742063616e6e6f74206265604482015264207a65726f60d81b6064820152608401610066565b6001600160a01b0392831660805290821660a052600180546001600160a01b03191691909216179055610281565b600080546001600160a01b038381166001600160a01b0319831681178455604051919092169283917f8be0079c531659141344cd1fd0a4f28419497f9722a3daafe3b4186f6b6457e09190a35050565b80516001600160a01b038116811461023957600080fd5b919050565b60008060006060848603121561025357600080fd5b61025c84610222565b925061026a60208501610222565b915061027860408501610222565b90509250925092565b60805160a0516118166102ec6000396000818161018501528181610762015281816109f401526112b7015260008181610221015281816103a20152818161087301528181610acb01528181610bc301528181610ca501528181610d7c0152610faa01526118166000f3fe608060405234801561001057600080fd5b50600436106101375760003560e01c80639c879405116100b8578063e7cb3d671161007c578063e7cb3d6714610285578063e91803231461028e578063f2fde38b146102b7578063f6329000146102ca578063fa0b5e55146102d3578063fccc2813146102e657600080fd5b80639c8794051461021c578063c187380014610243578063d2d0ded114610256578063d72b11bd1461025f578063dda4fa8f1461027257600080fd5b806339c50815116100ff57806339c50815146101d2578063715018a6146101f257806386d10e9f146101fa578063875eff72146102035780638da5cb5b1461020b57600080fd5b806303ad6cb71461013c57806305bf0a54146101515780632a6b69b91461016d57806338712e801461018057806339a8935f146101bf575b600080fd5b61014f61014a366004611495565b6102ef565b005b61015a60045481565b6040519081526020015b60405180910390f35b61014f61017b3660046114d7565b610623565b6101a77f000000000000000000000000000000000000000000000000000000000000000081565b6040516001600160a01b039091168152602001610164565b61014f6101cd36600461150c565b610e34565b61015a6101e036600461153e565b60076020526000908152604090205481565b61014f610f7e565b61015a60055481565b61015a610f92565b6000546001600160a01b03166101a7565b6101a77f000000000000000000000000000000000000000000000000000000000000000081565b61014f610251366004611562565b611022565b61015a60065481565b6001546101a7906001600160a01b031681565b61014f61028036600461153e565b611134565b61015a60035481565b61015a61029c36600461153e565b6001600160a01b031660009081526007602052604090205490565b61014f6102c536600461153e565b6111fc565b61015a60025481565b61014f6102e136600461157b565b61123a565b6101a761dead81565b6102f7611403565b6001600160a01b03831661034a5760405162461bcd60e51b8152602060048201526015602482015274496e76616c696420746f6b656e206164647265737360581b60448201526064015b60405180910390fd5b6001600160a01b0381166103a05760405162461bcd60e51b815260206004820152601960248201527f496e76616c696420726563697069656e742061646472657373000000000000006044820152606401610341565b7f00000000000000000000000000000000000000000000000000000000000000006001600160a01b0316836001600160a01b03160361043e5760405162461bcd60e51b815260206004820152603460248201527f43616e6e6f74207769746864726177206d61696e2053686f7043415020746f6b60448201527332b7103b34b0903a3434b990333ab731ba34b7b760611b6064820152608401610341565b6040516370a0823160e01b8152306004820152839083906001600160a01b038316906370a0823190602401602060405180830381865afa158015610486573d6000803e3d6000fd5b505050506040513d601f19601f820116820180604052508101906104aa91906115a7565b10156105135760405162461bcd60e51b815260206004820152603260248201527f496e73756666696369656e7420636f6e747261637420746f6b656e2062616c616044820152711b98d948199bdc881dda5d1a191c985dd85b60721b6064820152608401610341565b60405163a9059cbb60e01b81526001600160a01b038381166004830152602482018590526000919083169063a9059cbb906044016020604051808303816000875af1158015610566573d6000803e3d6000fd5b505050506040513d601f19601f8201168201806040525081019061058a91906115d5565b9050806105d95760405162461bcd60e51b815260206004820152601760248201527f546f6b656e207769746864726177616c206661696c65640000000000000000006044820152606401610341565b826001600160a01b03167fefed6b8d78a916dbd402a323824ae4454c9214b8f3d05fa85b3bb7f30dc25c068560405161061491815260200190565b60405180910390a25050505050565b61062b611403565b6001600160a01b0383166106815760405162461bcd60e51b815260206004820152601b60248201527f5573657220616464726573732063616e6e6f74206265207a65726f00000000006044820152606401610341565b600082116106e35760405162461bcd60e51b815260206004820152602960248201527f507572636861736520616d6f756e74206d7573742062652067726561746572206044820152687468616e207a65726f60b81b6064820152608401610341565b6000811161073f5760405162461bcd60e51b8152602060048201526024808201527f506172746e6572204944206d7573742062652067726561746572207468616e206044820152637a65726f60e01b6064820152608401610341565b604051630f1fe55b60e11b81526004810182905260009081906001600160a01b037f00000000000000000000000000000000000000000000000000000000000000001690631e3fcab690602401600060405180830381865afa1580156107a9573d6000803e3d6000fd5b505050506040513d6000823e601f3d908101601f191682016040526107d191908101906116ab565b94505050509150816108355760405162461bcd60e51b815260206004820152602760248201527f506172746e6572206973206e6f7420616374697665206f7220646f6573206e6f6044820152661d08195e1a5cdd60ca1b6064820152608401610341565b6000606460055486610847919061177b565b6108519190611798565b6040516370a0823160e01b815230600482015290915081906001600160a01b037f000000000000000000000000000000000000000000000000000000000000000016906370a0823190602401602060405180830381865afa1580156108ba573d6000803e3d6000fd5b505050506040513d601f19601f820116820180604052508101906108de91906115a7565b10156109435760405162461bcd60e51b815260206004820152602e60248201527f496e73756666696369656e742053686f7043415020746f6b656e2062616c616e60448201526d18d9481a5b8818dbdb9d1c9858dd60921b6064820152608401610341565b6000606460025483610955919061177b565b61095f9190611798565b90506000606460035484610973919061177b565b61097d9190611798565b90506000606460045485610991919061177b565b61099b9190611798565b6001600160a01b038a166000908152600760205260408120546006549293509091829190158015906109cc57508015155b15610a9f57604051630f1fe55b60e11b81526004810182905260009081906001600160a01b037f00000000000000000000000000000000000000000000000000000000000000001690631e3fcab690602401600060405180830381865afa158015610a3b573d6000803e3d6000fd5b505050506040513d6000823e601f3d908101601f19168201604052610a6391908101906116ab565b945050505091508115610a9c57809350606460065489610a83919061177b565b610a8d9190611798565b9450610a9985896117ba565b97505b50505b8515610b805760405163a9059cbb60e01b81526001600160a01b038d81166004830152602482018890527f0000000000000000000000000000000000000000000000000000000000000000169063a9059cbb906044016020604051808303816000875af1158015610b14573d6000803e3d6000fd5b505050506040513d601f19601f82011682018060405250810190610b3891906115d5565b50604080518c8152602081018890528b916001600160a01b038f16917fb3bde783dc37518880ee00be3474debcb35f117a78baf4f3abe287b902f3602e910160405180910390a35b600083118015610b9857506001600160a01b03821615155b15610c765760405163a9059cbb60e01b81526001600160a01b038381166004830152602482018590527f0000000000000000000000000000000000000000000000000000000000000000169063a9059cbb906044016020604051808303816000875af1158015610c0c573d6000803e3d6000fd5b505050506040513d601f19601f82011682018060405250810190610c3091906115d5565b5080826001600160a01b03167ffa2b2a2c17fdffddd0dcd8702ec9295b77b05a93fed481acee2305e6e34afc7185604051610c6d91815260200190565b60405180910390a35b8415610d585760015460405163a9059cbb60e01b81526001600160a01b039182166004820152602481018790527f00000000000000000000000000000000000000000000000000000000000000009091169063a9059cbb906044016020604051808303816000875af1158015610cf0573d6000803e3d6000fd5b505050506040513d601f19601f82011682018060405250810190610d1491906115d5565b506001546040518681526001600160a01b03909116907fa8437c27c2a99f07b97446a1ba9c66306fabb8a3cbd5a85fee55d44153c5f9759060200160405180910390a25b8315610e265760405163a9059cbb60e01b815261dead6004820152602481018590527f00000000000000000000000000000000000000000000000000000000000000006001600160a01b03169063a9059cbb906044016020604051808303816000875af1158015610dcd573d6000803e3d6000fd5b505050506040513d601f19601f82011682018060405250810190610df191906115d5565b506040518481527f6ef4855b666dcc7884561072e4358b28dfe01feb1b7f4dcebc00e62d50394ac79060200160405180910390a15b505050505050505050505050565b610e3c611403565b600084118015610e4d575060648411155b610eb85760405162461bcd60e51b815260206004820152603660248201527f496e76616c6964206261736520636173686261636b2070657263656e7420286d604482015275757374206265203e203020616e64203c3d203130302960501b6064820152608401610341565b606481610ec584866117cd565b610ecf91906117cd565b14610f1c5760405162461bcd60e51b815260206004820152601a60248201527f536861726573206d7573742073756d20757020746f20313030250000000000006044820152606401610341565b60058490556002839055600382905560048190556040805185815260208101859052908101839052606081018290527f636b347275e2120f2b6255f1281d546b1dcd929d8ddf018d1106a53f2ba5a7019060800160405180910390a150505050565b610f86611403565b610f906000611430565b565b6040516370a0823160e01b81523060048201526000907f00000000000000000000000000000000000000000000000000000000000000006001600160a01b0316906370a0823190602401602060405180830381865afa158015610ff9573d6000803e3d6000fd5b505050506040513d601f19601f8201168201806040525081019061101d91906115a7565b905090565b61102a611403565b606481111561108d5760405162461bcd60e51b815260206004820152602960248201527f526566657272657220626f6e75732070657263656e742063616e6e6f7420657860448201526863656564203130302560b81b6064820152608401610341565b6002548111156110f95760405162461bcd60e51b815260206004820152603160248201527f526566657272657220626f6e75732070657263656e742063616e6e6f74206578604482015270636565642075736572277320736861726560781b6064820152608401610341565b60068190556040518181527f1f2ebfdf43d1a9f035f8bc49e02c1c7d8bee01f8753b04349543fa2b687693169060200160405180910390a150565b61113c611403565b6001600160a01b0381166111a05760405162461bcd60e51b815260206004820152602560248201527f526573657276652077616c6c65742063616e6e6f74206265207a65726f206164604482015264647265737360d81b6064820152608401610341565b6001546040516001600160a01b038084169216907fab4955c2cf65d867be4283a83bbbda3eed4fcb13202c1a1cb7e35accb3370df590600090a3600180546001600160a01b0319166001600160a01b0392909216919091179055565b611204611403565b6001600160a01b03811661122e57604051631e4fbdf760e01b815260006004820152602401610341565b61123781611430565b50565b611242611403565b6001600160a01b0382166112985760405162461bcd60e51b815260206004820152601b60248201527f5573657220616464726573732063616e6e6f74206265207a65726f00000000006044820152606401610341565b801561139c57604051630f1fe55b60e11b8152600481018290526000907f00000000000000000000000000000000000000000000000000000000000000006001600160a01b031690631e3fcab690602401600060405180830381865afa158015611306573d6000803e3d6000fd5b505050506040513d6000823e601f3d908101601f1916820160405261132e91908101906116ab565b5050505090508061139a5760405162461bcd60e51b815260206004820152603060248201527f526566657272657220706172746e6572206973206e6f7420616374697665206f60448201526f1c88191bd95cc81b9bdd08195e1a5cdd60821b6064820152608401610341565b505b6001600160a01b03821660009081526007602052604081205490036113ff576001600160a01b038216600081815260076020526040808220849055518392917fe29d35093005f4d575e1003753426b57a7f64378ba73332eef9c6ccc2b8decd691a35b5050565b6000546001600160a01b03163314610f905760405163118cdaa760e01b8152336004820152602401610341565b600080546001600160a01b038381166001600160a01b0319831681178455604051919092169283917f8be0079c531659141344cd1fd0a4f28419497f9722a3daafe3b4186f6b6457e09190a35050565b6001600160a01b038116811461123757600080fd5b6000806000606084860312156114aa57600080fd5b83356114b581611480565b92506020840135915060408401356114cc81611480565b809150509250925092565b6000806000606084860312156114ec57600080fd5b83356114f781611480565b95602085013595506040909401359392505050565b6000806000806080858703121561152257600080fd5b5050823594602084013594506040840135936060013592509050565b60006020828403121561155057600080fd5b813561155b81611480565b9392505050565b60006020828403121561157457600080fd5b5035919050565b6000806040838503121561158e57600080fd5b823561159981611480565b946020939093013593505050565b6000602082840312156115b957600080fd5b5051919050565b805180151581146115d057600080fd5b919050565b6000602082840312156115e757600080fd5b61155b826115c0565b634e487b7160e01b600052604160045260246000fd5b600082601f83011261161757600080fd5b815167ffffffffffffffff811115611631576116316115f0565b604051601f8201601f19908116603f0116810167ffffffffffffffff81118282101715611660576116606115f0565b60405281815283820160200185101561167857600080fd5b60005b828110156116975760208186018101518383018201520161167b565b506000918101602001919091529392505050565b600080600080600060a086880312156116c357600080fd5b6116cc866115c0565b9450602086015167ffffffffffffffff8111156116e857600080fd5b6116f488828901611606565b945050604086015167ffffffffffffffff81111561171157600080fd5b61171d88828901611606565b935050606086015167ffffffffffffffff81111561173a57600080fd5b61174688828901611606565b925050608086015161175781611480565b809150509295509295909350565b634e487b7160e01b600052601160045260246000fd5b808202811582820484141761179257611792611765565b92915050565b6000826117b557634e487b7160e01b600052601260045260246000fd5b500490565b8181038181111561179257611792611765565b808201808211156117925761179261176556fea26469706673582212206158e01e302c8935976ef7ed89c025f66018fec7bb9f810ec767f6e7ec7722ea64736f6c634300081c0033",
  "linkReferences": {},
  "deployedLinkReferences": {}
}