{
  "_format": "hh-sol-artifact-1",
  "contractName": "ShopCAPPlatform",
  "sourceName": "contracts/ShopCAPPlatform.sol",
  "abi": [
    {
      "inputs": [
        {
          "internalType": "address",
          "name": "_partnerRegistryAddress",
          "type": "address"
        },
        {
          "internalType": "address",
          "name": "_cashbackManagerAddress",
          "type": "address"
        }
      ],
      "stateMutability": "nonpayable",
      "type": "constructor"
    },
    {
      "inputs": [
        {
          "internalType": "address",
          "name": "owner",
          "type": "address"
        }
      ],
      "name": "OwnableInvalidOwner",
      "type": "error"
    },
    {
      "inputs": [
        {
          "internalType": "address",
          "name": "account",
          "type": "address"
        }
      ],
      "name": "OwnableUnauthorizedAccount",
      "type": "error"
    },
    {
      "anonymous": false,
      "inputs": [
        {
          "indexed": true,
          "internalType": "address",
          "name": "previousOwner",
          "type": "address"
        },
        {
          "indexed": true,
          "internalType": "address",
          "name": "newOwner",
          "type": "address"
        }
      ],
      "name": "OwnershipTransferred",
      "type": "event"
    },
    {
      "anonymous": false,
      "inputs": [
        {
          "indexed": true,
          "internalType": "address",
          "name": "user",
          "type": "address"
        },
        {
          "indexed": false,
          "internalType": "uint256",
          "name": "purchaseAmount",
          "type": "uint256"
        },
        {
          "indexed": true,
          "internalType": "uint256",
          "name": "partnerId",
          "type": "uint256"
        }
      ],
      "name": "PlatformCashbackProcessed",
      "type": "event"
    },
    {
      "anonymous": false,
      "inputs": [
        {
          "indexed": true,
          "internalType": "uint256",
          "name": "partnerId",
          "type": "uint256"
        },
        {
          "indexed": false,
          "internalType": "string",
          "name": "name",
          "type": "string"
        },
        {
          "indexed": false,
          "internalType": "address",
          "name": "partnerWallet",
          "type": "address"
        }
      ],
      "name": "PlatformPartnerAdded",
      "type": "event"
    },
    {
      "anonymous": false,
      "inputs": [
        {
          "indexed": true,
          "internalType": "uint256",
          "name": "partnerId",
          "type": "uint256"
        },
        {
          "indexed": false,
          "internalType": "bool",
          "name": "isActive",
          "type": "bool"
        }
      ],
      "name": "PlatformPartnerStatusToggled",
      "type": "event"
    },
    {
      "anonymous": false,
      "inputs": [
        {
          "indexed": true,
          "internalType": "uint256",
          "name": "partnerId",
          "type": "uint256"
        },
        {
          "indexed": false,
          "internalType": "string",
          "name": "name",
          "type": "string"
        },
        {
          "indexed": false,
          "internalType": "address",
          "name": "partnerWallet",
          "type": "address"
        }
      ],
      "name": "PlatformPartnerUpdated",
      "type": "event"
    },
    {
      "anonymous": false,
      "inputs": [
        {
          "indexed": true,
          "internalType": "address",
          "name": "user",
          "type": "address"
        },
        {
          "indexed": true,
          "internalType": "uint256",
          "name": "referrerPartnerId",
          "type": "uint256"
        }
      ],
      "name": "PlatformUserRegistered",
      "type": "event"
    },
    {
      "anonymous": false,
      "inputs": [
        {
          "indexed": true,
          "internalType": "address",
          "name": "tokenAddress",
          "type": "address"
        },
        {
          "indexed": true,
          "internalType": "address",
          "name": "to",
          "type": "address"
        },
        {
          "indexed": false,
          "internalType": "uint256",
          "name": "amount",
          "type": "uint256"
        }
      ],
      "name": "PlatformWithdrawAnyERC20Tokens",
      "type": "event"
    },
    {
      "inputs": [
        {
          "internalType": "string",
          "name": "_name",
          "type": "string"
        },
        {
          "internalType": "string",
          "name": "_description",
          "type": "string"
        },
        {
          "internalType": "string",
          "name": "_referralLink",
          "type": "string"
        },
        {
          "internalType": "address",
          "name": "_partnerWallet",
          "type": "address"
        }
      ],
      "name": "addPartner",
      "outputs": [
        {
          "internalType": "uint256",
          "name": "",
          "type": "uint256"
        }
      ],
      "stateMutability": "nonpayable",
      "type": "function"
    },
    {
      "inputs": [],
      "name": "cashbackManager",
      "outputs": [
        {
          "internalType": "contract CashbackManager",
          "name": "",
          "type": "address"
        }
      ],
      "stateMutability": "view",
      "type": "function"
    },
    {
      "inputs": [],
      "name": "getCashbackManagerOwner",
      "outputs": [
        {
          "internalType": "address",
          "name": "",
          "type": "address"
        }
      ],
      "stateMutability": "view",
      "type": "function"
    },
    {
      "inputs": [],
      "name": "getCashbackManagerShopCapBalance",
      "outputs": [
        {
          "internalType": "uint256",
          "name": "",
          "type": "uint256"
        }
      ],
      "stateMutability": "view",
      "type": "function"
    },
    {
      "inputs": [
        {
          "internalType": "uint256",
          "name": "_partnerId",
          "type": "uint256"
        }
      ],
      "name": "getPartnerDetails",
      "outputs": [
        {
          "internalType": "bool",
          "name": "isActive",
          "type": "bool"
        },
        {
          "internalType": "string",
          "name": "name",
          "type": "string"
        },
        {
          "internalType": "string",
          "name": "description",
          "type": "string"
        },
        {
          "internalType": "string",
          "name": "referralLink",
          "type": "string"
        },
        {
          "internalType": "address",
          "name": "partnerWallet",
          "type": "address"
        }
      ],
      "stateMutability": "view",
      "type": "function"
    },
    {
      "inputs": [
        {
          "internalType": "uint256",
          "name": "_partnerId",
          "type": "uint256"
        }
      ],
      "name": "getPartnerWallet",
      "outputs": [
        {
          "internalType": "address",
          "name": "",
          "type": "address"
        }
      ],
      "stateMutability": "view",
      "type": "function"
    },
    {
      "inputs": [
        {
          "internalType": "address",
          "name": "_user",
          "type": "address"
        }
      ],
      "name": "getUserReferrerInfo",
      "outputs": [
        {
          "internalType": "uint256",
          "name": "",
          "type": "uint256"
        }
      ],
      "stateMutability": "view",
      "type": "function"
    },
    {
      "inputs": [],
      "name": "owner",
      "outputs": [
        {
          "internalType": "address",
          "name": "",
          "type": "address"
        }
      ],
      "stateMutability": "view",
      "type": "function"
    },
    {
      "inputs": [],
      "name": "partnerRegistry",
      "outputs": [
        {
          "internalType": "contract PartnerRegistry",
          "name": "",
          "type": "address"
        }
      ],
      "stateMutability": "view",
      "type": "function"
    },
    {
      "inputs": [
        {
          "internalType": "address",
          "name": "_user",
          "type": "address"
        },
        {
          "internalType": "uint256",
          "name": "_purchaseAmount",
          "type": "uint256"
        },
        {
          "internalType": "uint256",
          "name": "_partnerId",
          "type": "uint256"
        }
      ],
      "name": "processPurchaseAndIssueCashback",
      "outputs": [],
      "stateMutability": "nonpayable",
      "type": "function"
    },
    {
      "inputs": [
        {
          "internalType": "address",
          "name": "_userAddress",
          "type": "address"
        },
        {
          "internalType": "uint256",
          "name": "_referrerPartnerId",
          "type": "uint256"
        }
      ],
      "name": "registerUserOnPlatform",
      "outputs": [],
      "stateMutability": "nonpayable",
      "type": "function"
    },
    {
      "inputs": [],
      "name": "renounceOwnership",
      "outputs": [],
      "stateMutability": "nonpayable",
      "type": "function"
    },
    {
      "inputs": [
        {
          "internalType": "uint256",
          "name": "_newBasePercent",
          "type": "uint256"
        },
        {
          "internalType": "uint256",
          "name": "_newUserShare",
          "type": "uint256"
        },
        {
          "internalType": "uint256",
          "name": "_newReserveShare",
          "type": "uint256"
        },
        {
          "internalType": "uint256",
          "name": "_newBurnShare",
          "type": "uint256"
        }
      ],
      "name": "setCashbackManagerParams",
      "outputs": [],
      "stateMutability": "nonpayable",
      "type": "function"
    },
    {
      "inputs": [
        {
          "internalType": "uint256",
          "name": "_newPercent",
          "type": "uint256"
        }
      ],
      "name": "setCashbackManagerReferrerBonusPercent",
      "outputs": [],
      "stateMutability": "nonpayable",
      "type": "function"
    },
    {
      "inputs": [
        {
          "internalType": "address",
          "name": "_newReserveWallet",
          "type": "address"
        }
      ],
      "name": "setCashbackManagerReserveWallet",
      "outputs": [],
      "stateMutability": "nonpayable",
      "type": "function"
    },
    {
      "inputs": [
        {
          "internalType": "uint256",
          "name": "_partnerId",
          "type": "uint256"
        },
        {
          "internalType": "bool",
          "name": "_isActive",
          "type": "bool"
        }
      ],
      "name": "togglePartnerStatus",
      "outputs": [],
      "stateMutability": "nonpayable",
      "type": "function"
    },
    {
      "inputs": [
        {
          "internalType": "address",
          "name": "newOwner",
          "type": "address"
        }
      ],
      "name": "transferOwnership",
      "outputs": [],
      "stateMutability": "nonpayable",
      "type": "function"
    },
    {
      "inputs": [
        {
          "internalType": "uint256",
          "name": "_partnerId",
          "type": "uint256"
        },
        {
          "internalType": "string",
          "name": "_name",
          "type": "string"
        },
        {
          "internalType": "string",
          "name": "_description",
          "type": "string"
        },
        {
          "internalType": "string",
          "name": "_referralLink",
          "type": "string"
        },
        {
          "internalType": "address",
          "name": "_partnerWallet",
          "type": "address"
        }
      ],
      "name": "updatePartner",
      "outputs": [],
      "stateMutability": "nonpayable",
      "type": "function"
    },
    {
      "inputs": [
        {
          "internalType": "address",
          "name": "_tokenAddress",
          "type": "address"
        },
        {
          "internalType": "uint256",
          "name": "_amount",
          "type": "uint256"
        },
        {
          "internalType": "address",
          "name": "_to",
          "type": "address"
        }
      ],
      "name": "withdrawAnyERC20TokensFromPlatform",
      "outputs": [],
      "stateMutability": "nonpayable",
      "type": "function"
    }
  ],
  "bytecode": "0x60c060405234801561001057600080fd5b5060405161175d38038061175d83398101604081905261002f916101ad565b338061005657604051631e4fbdf760e01b8152600060048201526024015b60405180910390fd5b61005f81610141565b506001600160a01b0382166100c55760405162461bcd60e51b815260206004820152602660248201527f506172746e6572526567697374727920616464726573732063616e6e6f74206260448201526565207a65726f60d01b606482015260840161004d565b6001600160a01b03811661012a5760405162461bcd60e51b815260206004820152602660248201527f436173686261636b4d616e6167657220616464726573732063616e6e6f74206260448201526565207a65726f60d01b606482015260840161004d565b6001600160a01b039182166080521660a0526101e0565b600080546001600160a01b038381166001600160a01b0319831681178455604051919092169283917f8be0079c531659141344cd1fd0a4f28419497f9722a3daafe3b4186f6b6457e09190a35050565b80516001600160a01b03811681146101a857600080fd5b919050565b600080604083850312156101c057600080fd5b6101c983610191565b91506101d760208401610191565b90509250929050565b60805160a0516114fd610260600039600081816101a001528181610866015281816109080152818161099e01528181610a6701528181610ae901528181610c5f01528181610cc30152610dc80152600081816101ef015281816102f5015281816103d101528181610455015281816107be0152610b8801526114fd6000f3fe608060405234801561001057600080fd5b50600436106101215760003560e01c806362e94ee9116100ad578063892509511161007157806389250951146102755780638da5cb5b14610288578063c203ae7314610299578063f2fde38b146102ac578063fa770c20146102bf57600080fd5b806362e94ee91461022c5780636d271c281461023f578063715018a614610252578063733d61fc1461025a5780637ca5b5ae1461026257600080fd5b80632ebcceb9116100f45780632ebcceb9146101c257806332e9ff2c146101d757806338712e80146101ea57806341a07e831461021157806354fb02f01461021957600080fd5b80630df4490014610126578063158008b11461014c5780631e3fcab61461017757806321f8fba71461019b575b600080fd5b610139610134366004610f8c565b6102d2565b6040519081526020015b60405180910390f35b61015f61015a366004611033565b6103b8565b6040516001600160a01b039091168152602001610143565b61018a610185366004611033565b61044a565b60405161014395949392919061109c565b61015f7f000000000000000000000000000000000000000000000000000000000000000081565b6101d56101d03660046110f8565b6104f8565b005b6101d56101e5366004611148565b610798565b61015f7f000000000000000000000000000000000000000000000000000000000000000081565b61015f610862565b6101d5610227366004611033565b6108eb565b6101d561023a366004611178565b610970565b6101d561024d3660046111a4565b610a34565b6101d5610ad1565b610139610ae5565b6101d56102703660046111d6565b610b69565b6101d5610283366004611289565b610c38565b6000546001600160a01b031661015f565b6101d56102a73660046112ad565b610c8e565b6101d56102ba366004611289565b610d68565b6101396102cd366004611289565b610da6565b60006102dc610e35565b604051620df44960e81b81526000906001600160a01b037f00000000000000000000000000000000000000000000000000000000000000001690630df44900906103309089908990899089906004016112e2565b6020604051808303816000875af115801561034f573d6000803e3d6000fd5b505050506040513d601f19601f820116820180604052508101906103739190611335565b9050807f253bcec65d9ae7d35325ec63fd8ccaed8bef48037061e1368d664dd09921230187856040516103a792919061134e565b60405180910390a295945050505050565b60405163158008b160e01b8152600481018290526000907f00000000000000000000000000000000000000000000000000000000000000006001600160a01b03169063158008b190602401602060405180830381865afa158015610420573d6000803e3d6000fd5b505050506040513d601f19601f820116820180604052508101906104449190611378565b92915050565b6000606080606060007f00000000000000000000000000000000000000000000000000000000000000006001600160a01b0316631e3fcab6876040518263ffffffff1660e01b81526004016104a191815260200190565b600060405180830381865afa1580156104be573d6000803e3d6000fd5b505050506040513d6000823e601f3d908101601f191682016040526104e691908101906113e2565b939a9299509097509550909350915050565b610500610e35565b6001600160a01b0383166105535760405162461bcd60e51b8152602060048201526015602482015274496e76616c696420746f6b656e206164647265737360581b60448201526064015b60405180910390fd5b6001600160a01b0381166105a95760405162461bcd60e51b815260206004820152601960248201527f496e76616c696420726563697069656e74206164647265737300000000000000604482015260640161054a565b6040516370a0823160e01b8152306004820152839083906001600160a01b038316906370a0823190602401602060405180830381865afa1580156105f1573d6000803e3d6000fd5b505050506040513d601f19601f820116820180604052508101906106159190611335565b101561067e5760405162461bcd60e51b815260206004820152603260248201527f496e73756666696369656e7420706c6174666f726d20746f6b656e2062616c616044820152711b98d948199bdc881dda5d1a191c985dd85b60721b606482015260840161054a565b60405163a9059cbb60e01b81526001600160a01b038381166004830152602482018590526000919083169063a9059cbb906044016020604051808303816000875af11580156106d1573d6000803e3d6000fd5b505050506040513d601f19601f820116820180604052508101906106f59190611491565b9050806107445760405162461bcd60e51b815260206004820152601760248201527f546f6b656e207769746864726177616c206661696c6564000000000000000000604482015260640161054a565b826001600160a01b0316856001600160a01b03167f2dfc8c5bebc9ff0ba77bed21eaf5c59d58acbc51afefa2b8c084ae895d62d4ff8660405161078991815260200190565b60405180910390a35050505050565b6107a0610e35565b604051630cba7fcb60e21b81526004810183905281151560248201527f00000000000000000000000000000000000000000000000000000000000000006001600160a01b0316906332e9ff2c90604401600060405180830381600087803b15801561080a57600080fd5b505af115801561081e573d6000803e3d6000fd5b50505050817f3447cd74e3c19d291537b0e140a31aea1250293a1639159e2354510fb7f1069982604051610856911515815260200190565b60405180910390a25050565b60007f00000000000000000000000000000000000000000000000000000000000000006001600160a01b0316638da5cb5b6040518163ffffffff1660e01b8152600401602060405180830381865afa1580156108c2573d6000803e3d6000fd5b505050506040513d601f19601f820116820180604052508101906108e69190611378565b905090565b6108f3610e35565b604051621830e760eb1b8152600481018290527f00000000000000000000000000000000000000000000000000000000000000006001600160a01b03169063c1873800906024015b600060405180830381600087803b15801561095557600080fd5b505af1158015610969573d6000803e3d6000fd5b5050505050565b610978610e35565b60405163fa0b5e5560e01b81526001600160a01b038381166004830152602482018390527f0000000000000000000000000000000000000000000000000000000000000000169063fa0b5e5590604401600060405180830381600087803b1580156109e257600080fd5b505af11580156109f6573d6000803e3d6000fd5b50506040518392506001600160a01b03851691507fffb566f90794efde763454ea0b46918f7ccc163491dece86699d4f4633d2d94a90600090a35050565b610a3c610e35565b6040516339a8935f60e01b8152600481018590526024810184905260448101839052606481018290527f00000000000000000000000000000000000000000000000000000000000000006001600160a01b0316906339a8935f90608401600060405180830381600087803b158015610ab357600080fd5b505af1158015610ac7573d6000803e3d6000fd5b5050505050505050565b610ad9610e35565b610ae36000610e62565b565b60007f00000000000000000000000000000000000000000000000000000000000000006001600160a01b031663875eff726040518163ffffffff1660e01b8152600401602060405180830381865afa158015610b45573d6000803e3d6000fd5b505050506040513d601f19601f820116820180604052508101906108e69190611335565b610b71610e35565b604051633e52dad760e11b81526001600160a01b037f00000000000000000000000000000000000000000000000000000000000000001690637ca5b5ae90610bc590889088908890889088906004016114ae565b600060405180830381600087803b158015610bdf57600080fd5b505af1158015610bf3573d6000803e3d6000fd5b50505050847f4be2a7e8a48a03df1b4fb027d1e3a6db9ff61fe417c0c5e0f22b33b895485f7d8583604051610c2992919061134e565b60405180910390a25050505050565b610c40610e35565b60405163dda4fa8f60e01b81526001600160a01b0382811660048301527f0000000000000000000000000000000000000000000000000000000000000000169063dda4fa8f9060240161093b565b610c96610e35565b604051632a6b69b960e01b81526001600160a01b03848116600483015260248201849052604482018390527f00000000000000000000000000000000000000000000000000000000000000001690632a6b69b990606401600060405180830381600087803b158015610d0757600080fd5b505af1158015610d1b573d6000803e3d6000fd5b5050505080836001600160a01b03167f7bce8f972dcc2741c7c61dbce713e71f5ff710a375fe91f89da419b87e86eabb84604051610d5b91815260200190565b60405180910390a3505050565b610d70610e35565b6001600160a01b038116610d9a57604051631e4fbdf760e01b81526000600482015260240161054a565b610da381610e62565b50565b60405163e918032360e01b81526001600160a01b0382811660048301526000917f00000000000000000000000000000000000000000000000000000000000000009091169063e918032390602401602060405180830381865afa158015610e11573d6000803e3d6000fd5b505050506040513d601f19601f820116820180604052508101906104449190611335565b6000546001600160a01b03163314610ae35760405163118cdaa760e01b815233600482015260240161054a565b600080546001600160a01b038381166001600160a01b0319831681178455604051919092169283917f8be0079c531659141344cd1fd0a4f28419497f9722a3daafe3b4186f6b6457e09190a35050565b634e487b7160e01b600052604160045260246000fd5b604051601f8201601f1916810167ffffffffffffffff81118282101715610ef157610ef1610eb2565b604052919050565b600067ffffffffffffffff821115610f1357610f13610eb2565b50601f01601f191660200190565b600082601f830112610f3257600080fd5b8135610f45610f4082610ef9565b610ec8565b818152846020838601011115610f5a57600080fd5b816020850160208301376000918101602001919091529392505050565b6001600160a01b0381168114610da357600080fd5b60008060008060808587031215610fa257600080fd5b843567ffffffffffffffff811115610fb957600080fd5b610fc587828801610f21565b945050602085013567ffffffffffffffff811115610fe257600080fd5b610fee87828801610f21565b935050604085013567ffffffffffffffff81111561100b57600080fd5b61101787828801610f21565b925050606085013561102881610f77565b939692955090935050565b60006020828403121561104557600080fd5b5035919050565b60005b8381101561106757818101518382015260200161104f565b50506000910152565b6000815180845261108881602086016020860161104c565b601f01601f19169290920160200192915050565b851515815260a0602082015260006110b760a0830187611070565b82810360408401526110c98187611070565b905082810360608401526110dd8186611070565b91505060018060a01b03831660808301529695505050505050565b60008060006060848603121561110d57600080fd5b833561111881610f77565b925060208401359150604084013561112f81610f77565b809150509250925092565b8015158114610da357600080fd5b6000806040838503121561115b57600080fd5b82359150602083013561116d8161113a565b809150509250929050565b6000806040838503121561118b57600080fd5b823561119681610f77565b946020939093013593505050565b600080600080608085870312156111ba57600080fd5b5050823594602084013594506040840135936060013592509050565b600080600080600060a086880312156111ee57600080fd5b85359450602086013567ffffffffffffffff81111561120c57600080fd5b61121888828901610f21565b945050604086013567ffffffffffffffff81111561123557600080fd5b61124188828901610f21565b935050606086013567ffffffffffffffff81111561125e57600080fd5b61126a88828901610f21565b925050608086013561127b81610f77565b809150509295509295909350565b60006020828403121561129b57600080fd5b81356112a681610f77565b9392505050565b6000806000606084860312156112c257600080fd5b83356112cd81610f77565b95602085013595506040909401359392505050565b6080815260006112f56080830187611070565b82810360208401526113078187611070565b9050828103604084015261131b8186611070565b91505060018060a01b038316606083015295945050505050565b60006020828403121561134757600080fd5b5051919050565b6040815260006113616040830185611070565b905060018060a01b03831660208301529392505050565b60006020828403121561138a57600080fd5b81516112a681610f77565b600082601f8301126113a657600080fd5b81516113b4610f4082610ef9565b8181528460208386010111156113c957600080fd5b6113da82602083016020870161104c565b949350505050565b600080600080600060a086880312156113fa57600080fd5b85516114058161113a565b602087015190955067ffffffffffffffff81111561142257600080fd5b61142e88828901611395565b945050604086015167ffffffffffffffff81111561144b57600080fd5b61145788828901611395565b935050606086015167ffffffffffffffff81111561147457600080fd5b61148088828901611395565b925050608086015161127b81610f77565b6000602082840312156114a357600080fd5b81516112a68161113a565b85815260a0602082015260006110b760a083018761107056fea2646970667358221220ef58d1803895dd1109b063945f6c5b9fd86cfbf66ae8f8923a56d2baf5042b3064736f6c634300081c0033",
  "linkReferences": {},
  "deployedLinkReferences": {}
}