{
  "_format": "hh-sol-artifact-1",
  "contractName": "ShopCAPToken",
  "sourceName": "contracts/ShopCAPToken.sol",
  "abi": [
    {
      "inputs": [],
      "stateMutability": "nonpayable",
      "type": "constructor"
    },
    {
      "inputs": [
        {
          "internalType": "address",
          "name": "spender",
          "type": "address"
        },
        {
          "internalType": "uint256",
          "name": "allowance",
          "type": "uint256"
        },
        {
          "internalType": "uint256",
          "name": "needed",
          "type": "uint256"
        }
      ],
      "name": "ERC20InsufficientAllowance",
      "type": "error"
    },
    {
      "inputs": [
        {
          "internalType": "address",
          "name": "sender",
          "type": "address"
        },
        {
          "internalType": "uint256",
          "name": "balance",
          "type": "uint256"
        },
        {
          "internalType": "uint256",
          "name": "needed",
          "type": "uint256"
        }
      ],
      "name": "ERC20InsufficientBalance",
      "type": "error"
    },
    {
      "inputs": [
        {
          "internalType": "address",
          "name": "approver",
          "type": "address"
        }
      ],
      "name": "ERC20InvalidApprover",
      "type": "error"
    },
    {
      "inputs": [
        {
          "internalType": "address",
          "name": "receiver",
          "type": "address"
        }
      ],
      "name": "ERC20InvalidReceiver",
      "type": "error"
    },
    {
      "inputs": [
        {
          "internalType": "address",
          "name": "sender",
          "type": "address"
        }
      ],
      "name": "ERC20InvalidSender",
      "type": "error"
    },
    {
      "inputs": [
        {
          "internalType": "address",
          "name": "spender",
          "type": "address"
        }
      ],
      "name": "ERC20InvalidSpender",
      "type": "error"
    },
    {
      "inputs": [
        {
          "internalType": "address",
          "name": "owner",
          "type": "address"
        }
      ],
      "name": "OwnableInvalidOwner",
      "type": "error"
    },
    {
      "inputs": [
        {
          "internalType": "address",
          "name": "account",
          "type": "address"
        }
      ],
      "name": "OwnableUnauthorizedAccount",
      "type": "error"
    },
    {
      "anonymous": false,
      "inputs": [
        {
          "indexed": true,
          "internalType": "address",
          "name": "owner",
          "type": "address"
        },
        {
          "indexed": true,
          "internalType": "address",
          "name": "spender",
          "type": "address"
        },
        {
          "indexed": false,
          "internalType": "uint256",
          "name": "value",
          "type": "uint256"
        }
      ],
      "name": "Approval",
      "type": "event"
    },
    {
      "anonymous": false,
      "inputs": [
        {
          "indexed": true,
          "internalType": "address",
          "name": "previousOwner",
          "type": "address"
        },
        {
          "indexed": true,
          "internalType": "address",
          "name": "newOwner",
          "type": "address"
        }
      ],
      "name": "OwnershipTransferred",
      "type": "event"
    },
    {
      "anonymous": false,
      "inputs": [
        {
          "indexed": true,
          "internalType": "address",
          "name": "from",
          "type": "address"
        },
        {
          "indexed": true,
          "internalType": "address",
          "name": "to",
          "type": "address"
        },
        {
          "indexed": false,
          "internalType": "uint256",
          "name": "value",
          "type": "uint256"
        }
      ],
      "name": "Transfer",
      "type": "event"
    },
    {
      "inputs": [],
      "name": "INITIAL_SUPPLY",
      "outputs": [
        {
          "internalType": "uint256",
          "name": "",
          "type": "uint256"
        }
      ],
      "stateMutability": "view",
      "type": "function"
    },
    {
      "inputs": [
        {
          "internalType": "address",
          "name": "owner",
          "type": "address"
        },
        {
          "internalType": "address",
          "name": "spender",
          "type": "address"
        }
      ],
      "name": "allowance",
      "outputs": [
        {
          "internalType": "uint256",
          "name": "",
          "type": "uint256"
        }
      ],
      "stateMutability": "view",
      "type": "function"
    },
    {
      "inputs": [
        {
          "internalType": "address",
          "name": "spender",
          "type": "address"
        },
        {
          "internalType": "uint256",
          "name": "value",
          "type": "uint256"
        }
      ],
      "name": "approve",
      "outputs": [
        {
          "internalType": "bool",
          "name": "",
          "type": "bool"
        }
      ],
      "stateMutability": "nonpayable",
      "type": "function"
    },
    {
      "inputs": [
        {
          "internalType": "address",
          "name": "account",
          "type": "address"
        }
      ],
      "name": "balanceOf",
      "outputs": [
        {
          "internalType": "uint256",
          "name": "",
          "type": "uint256"
        }
      ],
      "stateMutability": "view",
      "type": "function"
    },
    {
      "inputs": [
        {
          "internalType": "address",
          "name": "from",
          "type": "address"
        },
        {
          "internalType": "uint256",
          "name": "amount",
          "type": "uint256"
        }
      ],
      "name": "burn",
      "outputs": [],
      "stateMutability": "nonpayable",
      "type": "function"
    },
    {
      "inputs": [],
      "name": "decimals",
      "outputs": [
        {
          "internalType": "uint8",
          "name": "",
          "type": "uint8"
        }
      ],
      "stateMutability": "view",
      "type": "function"
    },
    {
      "inputs": [
        {
          "internalType": "address",
          "name": "to",
          "type": "address"
        },
        {
          "internalType": "uint256",
          "name": "amount",
          "type": "uint256"
        }
      ],
      "name": "mint",
      "outputs": [],
      "stateMutability": "nonpayable",
      "type": "function"
    },
    {
      "inputs": [],
      "name": "name",
      "outputs": [
        {
          "internalType": "string",
          "name": "",
          "type": "string"
        }
      ],
      "stateMutability": "view",
      "type": "function"
    },
    {
      "inputs": [],
      "name": "owner",
      "outputs": [
        {
          "internalType": "address",
          "name": "",
          "type": "address"
        }
      ],
      "stateMutability": "view",
      "type": "function"
    },
    {
      "inputs": [],
      "name": "renounceOwnership",
      "outputs": [],
      "stateMutability": "nonpayable",
      "type": "function"
    },
    {
      "inputs": [],
      "name": "symbol",
      "outputs": [
        {
          "internalType": "string",
          "name": "",
          "type": "string"
        }
      ],
      "stateMutability": "view",
      "type": "function"
    },
    {
      "inputs": [],
      "name": "totalSupply",
      "outputs": [
        {
          "internalType": "uint256",
          "name": "",
          "type": "uint256"
        }
      ],
      "stateMutability": "view",
      "type": "function"
    },
    {
      "inputs": [
        {
          "internalType": "address",
          "name": "to",
          "type": "address"
        },
        {
          "internalType": "uint256",
          "name": "value",
          "type": "uint256"
        }
      ],
      "name": "transfer",
      "outputs": [
        {
          "internalType": "bool",
          "name": "",
          "type": "bool"
        }
      ],
      "stateMutability": "nonpayable",
      "type": "function"
    },
    {
      "inputs": [
        {
          "internalType": "address",
          "name": "from",
          "type": "address"
        },
        {
          "internalType": "address",
          "name": "to",
          "type": "address"
        },
        {
          "internalType": "uint256",
          "name": "value",
          "type": "uint256"
        }
      ],
      "name": "transferFrom",
      "outputs": [
        {
          "internalType": "bool",
          "name": "",
          "type": "bool"
        }
      ],
      "stateMutability": "nonpayable",
      "type": "function"
    },
    {
      "inputs": [
        {
          "internalType": "address",
          "name": "newOwner",
          "type": "address"
        }
      ],
      "name": "transferOwnership",
      "outputs": [],
      "stateMutability": "nonpayable",
      "type": "function"
    }
  ],
  "bytecode": "0x608060405234801561001057600080fd5b50336040518060400160405280600d81526020016c29b437b821a0a8102a37b5b2b760991b815250604051806040016040528060048152602001630534341560e41b8152508160039081610064919061031b565b506004610071828261031b565b5050506001600160a01b0381166100a357604051631e4fbdf760e01b8152600060048201526024015b60405180910390fd5b6100ac816100c6565b506100c13369d3c21bcecceda1000000610118565b610400565b600580546001600160a01b038381166001600160a01b0319831681179093556040519116919082907f8be0079c531659141344cd1fd0a4f28419497f9722a3daafe3b4186f6b6457e090600090a35050565b6001600160a01b0382166101425760405163ec442f0560e01b81526000600482015260240161009a565b61014e60008383610152565b5050565b6001600160a01b03831661017d57806002600082825461017291906103d9565b909155506101ef9050565b6001600160a01b038316600090815260208190526040902054818110156101d05760405163391434e360e21b81526001600160a01b0385166004820152602481018290526044810183905260640161009a565b6001600160a01b03841660009081526020819052604090209082900390555b6001600160a01b03821661020b5760028054829003905561022a565b6001600160a01b03821660009081526020819052604090208054820190555b816001600160a01b0316836001600160a01b03167fddf252ad1be2c89b69c2b068fc378daa952ba7f163c4a11628f55a4df523b3ef8360405161026f91815260200190565b60405180910390a3505050565b634e487b7160e01b600052604160045260246000fd5b600181811c908216806102a657607f821691505b6020821081036102c657634e487b7160e01b600052602260045260246000fd5b50919050565b601f82111561031657806000526020600020601f840160051c810160208510156102f35750805b601f840160051c820191505b8181101561031357600081556001016102ff565b50505b505050565b81516001600160401b038111156103345761033461027c565b610348816103428454610292565b846102cc565b6020601f82116001811461037c57600083156103645750848201515b600019600385901b1c1916600184901b178455610313565b600084815260208120601f198516915b828110156103ac578785015182556020948501946001909201910161038c565b50848210156103ca5786840151600019600387901b60f8161c191681555b50505050600190811b01905550565b808201808211156103fa57634e487b7160e01b600052601160045260246000fd5b92915050565b6109588061040f6000396000f3fe608060405234801561001057600080fd5b50600436106100f55760003560e01c806370a08231116100975780639dc29fac116100665780639dc29fac146101e9578063a9059cbb146101fc578063dd62ed3e1461020f578063f2fde38b1461024857600080fd5b806370a0823114610195578063715018a6146101be5780638da5cb5b146101c657806395d89b41146101e157600080fd5b806323b872dd116100d357806323b872dd1461014d5780632ff2e9dc14610160578063313ce5671461017157806340c10f191461018057600080fd5b806306fdde03146100fa578063095ea7b31461011857806318160ddd1461013b575b600080fd5b61010261025b565b60405161010f91906107a1565b60405180910390f35b61012b61012636600461080b565b6102ed565b604051901515815260200161010f565b6002545b60405190815260200161010f565b61012b61015b366004610835565b610307565b61013f69d3c21bcecceda100000081565b6040516012815260200161010f565b61019361018e36600461080b565b61032b565b005b61013f6101a3366004610872565b6001600160a01b031660009081526020819052604090205490565b610193610341565b6005546040516001600160a01b03909116815260200161010f565b610102610355565b6101936101f736600461080b565b610364565b61012b61020a36600461080b565b610376565b61013f61021d366004610894565b6001600160a01b03918216600090815260016020908152604080832093909416825291909152205490565b610193610256366004610872565b610384565b60606003805461026a906108c7565b80601f0160208091040260200160405190810160405280929190818152602001828054610296906108c7565b80156102e35780601f106102b8576101008083540402835291602001916102e3565b820191906000526020600020905b8154815290600101906020018083116102c657829003601f168201915b5050505050905090565b6000336102fb8185856103c7565b60019150505b92915050565b6000336103158582856103d9565b610320858585610458565b506001949350505050565b6103336104b7565b61033d82826104e4565b5050565b6103496104b7565b610353600061051a565b565b60606004805461026a906108c7565b61036c6104b7565b61033d828261056c565b6000336102fb818585610458565b61038c6104b7565b6001600160a01b0381166103bb57604051631e4fbdf760e01b8152600060048201526024015b60405180910390fd5b6103c48161051a565b50565b6103d483838360016105a2565b505050565b6001600160a01b03838116600090815260016020908152604080832093861683529290522054600019811015610452578181101561044357604051637dc7a0d960e11b81526001600160a01b038416600482015260248101829052604481018390526064016103b2565b610452848484840360006105a2565b50505050565b6001600160a01b03831661048257604051634b637e8f60e11b8152600060048201526024016103b2565b6001600160a01b0382166104ac5760405163ec442f0560e01b8152600060048201526024016103b2565b6103d4838383610677565b6005546001600160a01b031633146103535760405163118cdaa760e01b81523360048201526024016103b2565b6001600160a01b03821661050e5760405163ec442f0560e01b8152600060048201526024016103b2565b61033d60008383610677565b600580546001600160a01b038381166001600160a01b0319831681179093556040519116919082907f8be0079c531659141344cd1fd0a4f28419497f9722a3daafe3b4186f6b6457e090600090a35050565b6001600160a01b03821661059657604051634b637e8f60e11b8152600060048201526024016103b2565b61033d82600083610677565b6001600160a01b0384166105cc5760405163e602df0560e01b8152600060048201526024016103b2565b6001600160a01b0383166105f657604051634a1406b160e11b8152600060048201526024016103b2565b6001600160a01b038085166000908152600160209081526040808320938716835292905220829055801561045257826001600160a01b0316846001600160a01b03167f8c5be1e5ebec7d5bd14f71427d1e84f3dd0314c0f7b2291e5b200ac8c7c3b9258460405161066991815260200190565b60405180910390a350505050565b6001600160a01b0383166106a25780600260008282546106979190610901565b909155506107149050565b6001600160a01b038316600090815260208190526040902054818110156106f55760405163391434e360e21b81526001600160a01b038516600482015260248101829052604481018390526064016103b2565b6001600160a01b03841660009081526020819052604090209082900390555b6001600160a01b0382166107305760028054829003905561074f565b6001600160a01b03821660009081526020819052604090208054820190555b816001600160a01b0316836001600160a01b03167fddf252ad1be2c89b69c2b068fc378daa952ba7f163c4a11628f55a4df523b3ef8360405161079491815260200190565b60405180910390a3505050565b602081526000825180602084015260005b818110156107cf57602081860181015160408684010152016107b2565b506000604082850101526040601f19601f83011684010191505092915050565b80356001600160a01b038116811461080657600080fd5b919050565b6000806040838503121561081e57600080fd5b610827836107ef565b946020939093013593505050565b60008060006060848603121561084a57600080fd5b610853846107ef565b9250610861602085016107ef565b929592945050506040919091013590565b60006020828403121561088457600080fd5b61088d826107ef565b9392505050565b600080604083850312156108a757600080fd5b6108b0836107ef565b91506108be602084016107ef565b90509250929050565b600181811c908216806108db57607f821691505b6020821081036108fb57634e487b7160e01b600052602260045260246000fd5b50919050565b8082018082111561030157634e487b7160e01b600052601160045260246000fdfea26469706673582212209c73655e00292ef3cb420a4c78d3422526cde0d222d34c592f5dcc8bb8b3a3f664736f6c634300081c0033",
  "linkReferences": {},
  "deployedLinkReferences": {}
}